{
  "address": "0xe7f1725E7734CE288F8367e1Bb143E90bb3F0512",
  "abi": [
    {
      "inputs": [
        {
          "internalType": "address",
          "name": "priceFeed",
          "type": "address"
        }
      ],
      "stateMutability": "nonpayable",
      "type": "constructor"
    },
    {
      "inputs": [],
      "name": "FundMe__NotOwner",
      "type": "error"
    },
    {
      "inputs": [],
      "name": "MINIMUM_USD",
      "outputs": [
        {
          "internalType": "uint256",
          "name": "",
          "type": "uint256"
        }
      ],
      "stateMutability": "view",
      "type": "function"
    },
    {
      "inputs": [],
      "name": "cheaperWithdraw",
      "outputs": [],
      "stateMutability": "nonpayable",
      "type": "function"
    },
    {
      "inputs": [],
      "name": "fund",
      "outputs": [],
      "stateMutability": "payable",
      "type": "function"
    },
    {
      "inputs": [
        {
          "internalType": "address",
          "name": "fundingAddress",
          "type": "address"
        }
      ],
      "name": "getAddressToAmountFunded",
      "outputs": [
        {
          "internalType": "uint256",
          "name": "",
          "type": "uint256"
        }
      ],
      "stateMutability": "view",
      "type": "function"
    },
    {
      "inputs": [
        {
          "internalType": "uint256",
          "name": "index",
          "type": "uint256"
        }
      ],
      "name": "getFunder",
      "outputs": [
        {
          "internalType": "address",
          "name": "",
          "type": "address"
        }
      ],
      "stateMutability": "view",
      "type": "function"
    },
    {
      "inputs": [],
      "name": "getOwner",
      "outputs": [
        {
          "internalType": "address",
          "name": "",
          "type": "address"
        }
      ],
      "stateMutability": "view",
      "type": "function"
    },
    {
      "inputs": [],
      "name": "getPriceFeed",
      "outputs": [
        {
          "internalType": "contract AggregatorV3Interface",
          "name": "",
          "type": "address"
        }
      ],
      "stateMutability": "view",
      "type": "function"
    },
    {
      "inputs": [],
      "name": "getVersion",
      "outputs": [
        {
          "internalType": "uint256",
          "name": "",
          "type": "uint256"
        }
      ],
      "stateMutability": "view",
      "type": "function"
    },
    {
      "inputs": [],
      "name": "withdraw",
      "outputs": [],
      "stateMutability": "nonpayable",
      "type": "function"
    }
  ],
  "transactionHash": "0xbaa88bfeeb7d56ee438e8cb25f252acff75a624faeb3d09df7bf18fc1f5ae349",
  "args": [
    "0x5FbDB2315678afecb367f032d93F642f64180aa3"
  ],
  "numDeployments": 1,
  "solcInputHash": "f2fe5fdc8ce4abd88550b4fea501fc2a",
  "bytecode": "0x60a06040523480156200001157600080fd5b50604051620013f6380380620013f68339818101604052810190620000379190620000cd565b80600260006101000a81548173ffffffffffffffffffffffffffffffffffffffff021916908373ffffffffffffffffffffffffffffffffffffffff1602179055503373ffffffffffffffffffffffffffffffffffffffff1660808173ffffffffffffffffffffffffffffffffffffffff1660601b815250505062000152565b600081519050620000c78162000138565b92915050565b600060208284031215620000e657620000e562000133565b5b6000620000f684828501620000b6565b91505092915050565b60006200010c8262000113565b9050919050565b600073ffffffffffffffffffffffffffffffffffffffff82169050919050565b600080fd5b6200014381620000ff565b81146200014f57600080fd5b50565b60805160601c6112696200018d600039600081816102db0152818161046e0152818161054a015281816106d501526108cb01526112696000f3fe6080604052600436106100865760003560e01c8063893d20e811610059578063893d20e8146101355780639e87a5cd14610160578063b60d42881461018b578063be2693f014610195578063d7b4750c146101ac57610086565b80630343fb251461008b5780630d8e6e2c146100c85780633ccfd60b146100f35780636b69a5921461010a575b600080fd5b34801561009757600080fd5b506100b260048036038101906100ad9190610b94565b6101e9565b6040516100bf9190610db7565b60405180910390f35b3480156100d457600080fd5b506100dd610232565b6040516100ea9190610db7565b60405180910390f35b3480156100ff57600080fd5b506101086102d9565b005b34801561011657600080fd5b5061011f610539565b60405161012c9190610db7565b60405180910390f35b34801561014157600080fd5b5061014a610546565b6040516101579190610d41565b60405180910390f35b34801561016c57600080fd5b5061017561056e565b6040516101829190610d5c565b60405180910390f35b610193610598565b005b3480156101a157600080fd5b506101aa6106d3565b005b3480156101b857600080fd5b506101d360048036038101906101ce9190610bc1565b610961565b6040516101e09190610d41565b60405180910390f35b6000600160008373ffffffffffffffffffffffffffffffffffffffff1673ffffffffffffffffffffffffffffffffffffffff168152602001908152602001600020549050919050565b6000600260009054906101000a900473ffffffffffffffffffffffffffffffffffffffff1673ffffffffffffffffffffffffffffffffffffffff166354fd4d506040518163ffffffff1660e01b815260040160206040518083038186803b15801561029c57600080fd5b505afa1580156102b0573d6000803e3d6000fd5b505050506040513d601f19601f820116820180604052508101906102d49190610bee565b905090565b7f000000000000000000000000000000000000000000000000000000000000000073ffffffffffffffffffffffffffffffffffffffff163373ffffffffffffffffffffffffffffffffffffffff161461035e576040517f579610db00000000000000000000000000000000000000000000000000000000815260040160405180910390fd5b60005b6000805490508110156104095760008082815481106103835761038261111f565b5b9060005260206000200160009054906101000a900473ffffffffffffffffffffffffffffffffffffffff1690506000600160008373ffffffffffffffffffffffffffffffffffffffff1673ffffffffffffffffffffffffffffffffffffffff1681526020019081526020016000208190555050808061040190611078565b915050610361565b50600067ffffffffffffffff8111156104255761042461114e565b5b6040519080825280602002602001820160405280156104535781602001602082028036833780820191505090505b5060009080519060200190610469929190610a84565b5060007f000000000000000000000000000000000000000000000000000000000000000073ffffffffffffffffffffffffffffffffffffffff16476040516104b090610d2c565b60006040518083038185875af1925050503d80600081146104ed576040519150601f19603f3d011682016040523d82523d6000602084013e6104f2565b606091505b5050905080610536576040517f08c379a000000000000000000000000000000000000000000000000000000000815260040161052d90610d77565b60405180910390fd5b50565b6802b5e3af16b188000081565b60007f0000000000000000000000000000000000000000000000000000000000000000905090565b6000600260009054906101000a900473ffffffffffffffffffffffffffffffffffffffff16905090565b6802b5e3af16b18800006105d7600260009054906101000a900473ffffffffffffffffffffffffffffffffffffffff16346109a890919063ffffffff16565b1015610618576040517f08c379a000000000000000000000000000000000000000000000000000000000815260040161060f90610d97565b60405180910390fd5b34600160003373ffffffffffffffffffffffffffffffffffffffff1673ffffffffffffffffffffffffffffffffffffffff16815260200190815260200160002060008282546106679190610dee565b925050819055506000339080600181540180825580915050600190039060005260206000200160009091909190916101000a81548173ffffffffffffffffffffffffffffffffffffffff021916908373ffffffffffffffffffffffffffffffffffffffff160217905550565b7f000000000000000000000000000000000000000000000000000000000000000073ffffffffffffffffffffffffffffffffffffffff163373ffffffffffffffffffffffffffffffffffffffff1614610758576040517f579610db00000000000000000000000000000000000000000000000000000000815260040160405180910390fd5b6000808054806020026020016040519081016040528092919081815260200182805480156107db57602002820191906000526020600020905b8160009054906101000a900473ffffffffffffffffffffffffffffffffffffffff1673ffffffffffffffffffffffffffffffffffffffff1681526020019060010190808311610791575b5050505050905060005b81518110156108665760008282815181106108035761080261111f565b5b602002602001015190506000600160008373ffffffffffffffffffffffffffffffffffffffff1673ffffffffffffffffffffffffffffffffffffffff1681526020019081526020016000208190555050808061085e90611078565b9150506107e5565b50600067ffffffffffffffff8111156108825761088161114e565b5b6040519080825280602002602001820160405280156108b05781602001602082028036833780820191505090505b50600090805190602001906108c6929190610a84565b5060007f000000000000000000000000000000000000000000000000000000000000000073ffffffffffffffffffffffffffffffffffffffff164760405161090d90610d2c565b60006040518083038185875af1925050503d806000811461094a576040519150601f19603f3d011682016040523d82523d6000602084013e61094f565b606091505b505090508061095d57600080fd5b5050565b60008082815481106109765761097561111f565b5b9060005260206000200160009054906101000a900473ffffffffffffffffffffffffffffffffffffffff169050919050565b6000806109b4836109e4565b90506000670de0b6b3a764000085836109cd9190610f8c565b6109d79190610e44565b9050809250505092915050565b6000808273ffffffffffffffffffffffffffffffffffffffff1663feaf968c6040518163ffffffff1660e01b815260040160a06040518083038186803b158015610a2d57600080fd5b505afa158015610a41573d6000803e3d6000fd5b505050506040513d601f19601f82011682018060405250810190610a659190610c1b565b5050509150506402540be40081610a7c9190610e75565b915050919050565b828054828255906000526020600020908101928215610afd579160200282015b82811115610afc5782518260006101000a81548173ffffffffffffffffffffffffffffffffffffffff021916908373ffffffffffffffffffffffffffffffffffffffff16021790555091602001919060010190610aa4565b5b509050610b0a9190610b0e565b5090565b5b80821115610b27576000816000905550600101610b0f565b5090565b600081359050610b3a816111d7565b92915050565b600081519050610b4f816111ee565b92915050565b600081359050610b6481611205565b92915050565b600081519050610b7981611205565b92915050565b600081519050610b8e8161121c565b92915050565b600060208284031215610baa57610ba961117d565b5b6000610bb884828501610b2b565b91505092915050565b600060208284031215610bd757610bd661117d565b5b6000610be584828501610b55565b91505092915050565b600060208284031215610c0457610c0361117d565b5b6000610c1284828501610b6a565b91505092915050565b600080600080600060a08688031215610c3757610c3661117d565b5b6000610c4588828901610b7f565b9550506020610c5688828901610b40565b9450506040610c6788828901610b6a565b9350506060610c7888828901610b6a565b9250506080610c8988828901610b7f565b9150509295509295909350565b610c9f81610fe6565b82525050565b610cae81611042565b82525050565b6000610cc1600f83610ddd565b9150610ccc82611182565b602082019050919050565b6000610ce4601b83610ddd565b9150610cef826111ab565b602082019050919050565b6000610d07600083610dd2565b9150610d12826111d4565b600082019050919050565b610d2681611022565b82525050565b6000610d3782610cfa565b9150819050919050565b6000602082019050610d566000830184610c96565b92915050565b6000602082019050610d716000830184610ca5565b92915050565b60006020820190508181036000830152610d9081610cb4565b9050919050565b60006020820190508181036000830152610db081610cd7565b9050919050565b6000602082019050610dcc6000830184610d1d565b92915050565b600081905092915050565b600082825260208201905092915050565b6000610df982611022565b9150610e0483611022565b9250827fffffffffffffffffffffffffffffffffffffffffffffffffffffffffffffffff03821115610e3957610e386110c1565b5b828201905092915050565b6000610e4f82611022565b9150610e5a83611022565b925082610e6a57610e696110f0565b5b828204905092915050565b6000610e8082610ff8565b9150610e8b83610ff8565b9250827f7fffffffffffffffffffffffffffffffffffffffffffffffffffffffffffffff0482116000841360008413161615610eca57610ec96110c1565b5b817f80000000000000000000000000000000000000000000000000000000000000000583126000841260008413161615610f0757610f066110c1565b5b827f80000000000000000000000000000000000000000000000000000000000000000582126000841360008412161615610f4457610f436110c1565b5b827f7fffffffffffffffffffffffffffffffffffffffffffffffffffffffffffffff0582126000841260008412161615610f8157610f806110c1565b5b828202905092915050565b6000610f9782611022565b9150610fa283611022565b9250817fffffffffffffffffffffffffffffffffffffffffffffffffffffffffffffffff0483118215151615610fdb57610fda6110c1565b5b828202905092915050565b6000610ff182611002565b9050919050565b6000819050919050565b600073ffffffffffffffffffffffffffffffffffffffff82169050919050565b6000819050919050565b600069ffffffffffffffffffff82169050919050565b600061104d82611054565b9050919050565b600061105f82611066565b9050919050565b600061107182611002565b9050919050565b600061108382611022565b91507fffffffffffffffffffffffffffffffffffffffffffffffffffffffffffffffff8214156110b6576110b56110c1565b5b600182019050919050565b7f4e487b7100000000000000000000000000000000000000000000000000000000600052601160045260246000fd5b7f4e487b7100000000000000000000000000000000000000000000000000000000600052601260045260246000fd5b7f4e487b7100000000000000000000000000000000000000000000000000000000600052603260045260246000fd5b7f4e487b7100000000000000000000000000000000000000000000000000000000600052604160045260246000fd5b600080fd5b7f5472616e73666572206661696c65640000000000000000000000000000000000600082015250565b7f596f75206e65656420746f207370656e64206d6f726520455448210000000000600082015250565b50565b6111e081610fe6565b81146111eb57600080fd5b50565b6111f781610ff8565b811461120257600080fd5b50565b61120e81611022565b811461121957600080fd5b50565b6112258161102c565b811461123057600080fd5b5056fea2646970667358221220d9d814644d31052e2178653efd72b064683158c0c1270de88a0ffa18ab77b09b64736f6c63430008070033",
  "devdoc": {
    "author": "Federica Mariani",
    "details": "This implements price feeds as our library",
    "kind": "dev",
    "methods": {
      "getAddressToAmountFunded(address)": {
        "params": {
          "fundingAddress": "the address of the funder"
        },
        "returns": {
          "_0": "the amount funded"
        }
      }
    },
    "title": "A contract for simple crowfunding",
    "version": 1
  },
  "userdoc": {
    "kind": "user",
    "methods": {
      "fund()": {
        "notice": "Funds our contract based on the ETH/USD price"
      },
      "getAddressToAmountFunded(address)": {
        "notice": "Gets the amount that an address has funded"
      }
    },
    "notice": "This contract is to demo a sample funding contract",
    "version": 1
  },
  "storageLayout": {
    "storage": [
      {
        "astId": 67,
        "contract": "contracts/FundMe.sol:FundMe",
        "label": "s_funders",
        "offset": 0,
        "slot": "0",
        "type": "t_array(t_address)dyn_storage"
      },
      {
        "astId": 71,
        "contract": "contracts/FundMe.sol:FundMe",
        "label": "s_addressToAmountFunded",
        "offset": 0,
        "slot": "1",
        "type": "t_mapping(t_address,t_uint256)"
      },
      {
        "astId": 74,
        "contract": "contracts/FundMe.sol:FundMe",
        "label": "s_priceFeed",
        "offset": 0,
        "slot": "2",
        "type": "t_contract(AggregatorV3Interface)45"
      }
    ],
    "types": {
      "t_address": {
        "encoding": "inplace",
        "label": "address",
        "numberOfBytes": "20"
      },
      "t_array(t_address)dyn_storage": {
        "base": "t_address",
        "encoding": "dynamic_array",
        "label": "address[]",
        "numberOfBytes": "32"
      },
      "t_contract(AggregatorV3Interface)45": {
        "encoding": "inplace",
        "label": "contract AggregatorV3Interface",
        "numberOfBytes": "20"
      },
      "t_mapping(t_address,t_uint256)": {
        "encoding": "mapping",
        "key": "t_address",
        "label": "mapping(address => uint256)",
        "numberOfBytes": "32",
        "value": "t_uint256"
      },
      "t_uint256": {
        "encoding": "inplace",
        "label": "uint256",
        "numberOfBytes": "32"
      }
    }
  }
}